{
  "_format": "hh-sol-artifact-1",
  "contractName": "SignatureValidator",
  "sourceName": "@aragon/apps-agent/contracts/SignatureValidator.sol",
  "abi": [
    {
      "constant": true,
      "inputs": [],
      "name": "ERC1271_RETURN_VALID_SIGNATURE",
      "outputs": [
        {
          "name": "",
          "type": "bytes4"
        }
      ],
      "payable": false,
      "stateMutability": "view",
      "type": "function"
    }
  ],
  "bytecode": "0x610108610030600b82828239805160001a6073146000811461002057610022565bfe5b5030600052607381538281f30073000000000000000000000000000000000000000030146080604052600436106056576000357c0100000000000000000000000000000000000000000000000000000000900463ffffffff1680639890cdca14605b575b600080fd5b606160b5565b60405180827bffffffffffffffffffffffffffffffffffffffffffffffffffffffff19167bffffffffffffffffffffffffffffffffffffffffffffffffffffffff1916815260200191505060405180910390f35b6320c13b0b7c010000000000000000000000000000000000000000000000000000000002815600a165627a7a723058209178ec708e2817a2be488a46dacb27d5a0b6f7ece8f4d344ceb01df096beb55f0029",
  "linkReferences": {},
  "deployedLinkReferences": {}
}