{
  "_format": "hh-sol-artifact-1",
  "contractName": "VotingMock",
  "sourceName": "contracts/test/mocks/VotingMock.sol",
  "abi": [
    {
      "constant": true,
      "inputs": [
        {
          "name": "_value",
          "type": "uint256"
        },
        {
          "name": "_total",
          "type": "uint256"
        },
        {
          "name": "_pct",
          "type": "uint256"
        }
      ],
      "name": "isValuePct",
      "outputs": [
        {
          "name": "",
          "type": "bool"
        }
      ],
      "payable": false,
      "stateMutability": "pure",
      "type": "function"
    },
    {
      "constant": true,
      "inputs": [],
      "name": "hasInitialized",
      "outputs": [
        {
          "name": "",
          "type": "bool"
        }
      ],
      "payable": false,
      "stateMutability": "view",
      "type": "function"
    },
    {
      "constant": true,
      "inputs": [
        {
          "name": "_script",
          "type": "bytes"
        }
      ],
      "name": "getEVMScriptExecutor",
      "outputs": [
        {
          "name": "",
          "type": "address"
        }
      ],
      "payable": false,
      "stateMutability": "view",
      "type": "function"
    },
    {
      "constant": true,
      "inputs": [],
      "name": "getRecoveryVault",
      "outputs": [
        {
          "name": "",
          "type": "address"
        }
      ],
      "payable": false,
      "stateMutability": "view",
      "type": "function"
    },
    {
      "constant": true,
      "inputs": [],
      "name": "MODIFY_QUORUM_ROLE",
      "outputs": [
        {
          "name": "",
          "type": "bytes32"
        }
      ],
      "payable": false,
      "stateMutability": "view",
      "type": "function"
    },
    {
      "constant": true,
      "inputs": [
        {
          "name": "_voteId",
          "type": "uint256"
        },
        {
          "name": "_voter",
          "type": "address"
        }
      ],
      "name": "getVoterState",
      "outputs": [
        {
          "name": "",
          "type": "uint8"
        }
      ],
      "payable": false,
      "stateMutability": "view",
      "type": "function"
    },
    {
      "constant": false,
      "inputs": [
        {
          "name": "_holder",
          "type": "address"
        },
        {
          "name": "_tokenAmount",
          "type": "uint256"
        },
        {
          "name": "_metadata",
          "type": "string"
        }
      ],
      "name": "newTokenAndVote",
      "outputs": [
        {
          "name": "voteId",
          "type": "uint256"
        }
      ],
      "payable": false,
      "stateMutability": "nonpayable",
      "type": "function"
    },
    {
      "constant": true,
      "inputs": [
        {
          "name": "_voteId",
          "type": "uint256"
        }
      ],
      "name": "getVote",
      "outputs": [
        {
          "name": "open",
          "type": "bool"
        },
        {
          "name": "executed",
          "type": "bool"
        },
        {
          "name": "startDate",
          "type": "uint64"
        },
        {
          "name": "snapshotBlock",
          "type": "uint64"
        },
        {
          "name": "supportRequired",
          "type": "uint64"
        },
        {
          "name": "minAcceptQuorum",
          "type": "uint64"
        },
        {
          "name": "yea",
          "type": "uint256"
        },
        {
          "name": "nay",
          "type": "uint256"
        },
        {
          "name": "votingPower",
          "type": "uint256"
        },
        {
          "name": "script",
          "type": "bytes"
        }
      ],
      "payable": false,
      "stateMutability": "view",
      "type": "function"
    },
    {
      "constant": false,
      "inputs": [
        {
          "name": "_minAcceptQuorumPct",
          "type": "uint64"
        }
      ],
      "name": "changeMinAcceptQuorumPct",
      "outputs": [],
      "payable": false,
      "stateMutability": "nonpayable",
      "type": "function"
    },
    {
      "constant": false,
      "inputs": [
        {
          "name": "_seconds",
          "type": "uint256"
        }
      ],
      "name": "mockDecreaseTime",
      "outputs": [],
      "payable": false,
      "stateMutability": "nonpayable",
      "type": "function"
    },
    {
      "constant": true,
      "inputs": [],
      "name": "MODIFY_SUPPORT_ROLE",
      "outputs": [
        {
          "name": "",
          "type": "bytes32"
        }
      ],
      "payable": false,
      "stateMutability": "view",
      "type": "function"
    },
    {
      "constant": false,
      "inputs": [
        {
          "name": "_timestamp",
          "type": "uint256"
        }
      ],
      "name": "mockSetTimestamp",
      "outputs": [],
      "payable": false,
      "stateMutability": "nonpayable",
      "type": "function"
    },
    {
      "constant": true,
      "inputs": [],
      "name": "getBlockNumberPublic",
      "outputs": [
        {
          "name": "",
          "type": "uint256"
        }
      ],
      "payable": false,
      "stateMutability": "view",
      "type": "function"
    },
    {
      "constant": false,
      "inputs": [
        {
          "name": "_number",
          "type": "uint256"
        }
      ],
      "name": "mockAdvanceBlocks",
      "outputs": [],
      "payable": false,
      "stateMutability": "nonpayable",
      "type": "function"
    },
    {
      "constant": false,
      "inputs": [
        {
          "name": "_supportRequiredPct",
          "type": "uint64"
        }
      ],
      "name": "changeSupportRequiredPct",
      "outputs": [],
      "payable": false,
      "stateMutability": "nonpayable",
      "type": "function"
    },
    {
      "constant": true,
      "inputs": [],
      "name": "getTimestampPublic",
      "outputs": [
        {
          "name": "",
          "type": "uint64"
        }
      ],
      "payable": false,
      "stateMutability": "view",
      "type": "function"
    },
    {
      "constant": true,
      "inputs": [
        {
          "name": "token",
          "type": "address"
        }
      ],
      "name": "allowRecoverability",
      "outputs": [
        {
          "name": "",
          "type": "bool"
        }
      ],
      "payable": false,
      "stateMutability": "view",
      "type": "function"
    },
    {
      "constant": true,
      "inputs": [],
      "name": "appId",
      "outputs": [
        {
          "name": "",
          "type": "bytes32"
        }
      ],
      "payable": false,
      "stateMutability": "view",
      "type": "function"
    },
    {
      "constant": true,
      "inputs": [],
      "name": "getInitializationBlock",
      "outputs": [
        {
          "name": "",
          "type": "uint256"
        }
      ],
      "payable": false,
      "stateMutability": "view",
      "type": "function"
    },
    {
      "constant": false,
      "inputs": [
        {
          "name": "_seconds",
          "type": "uint256"
        }
      ],
      "name": "mockIncreaseTime",
      "outputs": [],
      "payable": false,
      "stateMutability": "nonpayable",
      "type": "function"
    },
    {
      "constant": true,
      "inputs": [],
      "name": "mockedBlockNumber",
      "outputs": [
        {
          "name": "",
          "type": "uint256"
        }
      ],
      "payable": false,
      "stateMutability": "view",
      "type": "function"
    },
    {
      "constant": false,
      "inputs": [
        {
          "name": "_token",
          "type": "address"
        }
      ],
      "name": "transferToVault",
      "outputs": [],
      "payable": false,
      "stateMutability": "nonpayable",
      "type": "function"
    },
    {
      "constant": true,
      "inputs": [
        {
          "name": "_sender",
          "type": "address"
        },
        {
          "name": "_role",
          "type": "bytes32"
        },
        {
          "name": "_params",
          "type": "uint256[]"
        }
      ],
      "name": "canPerform",
      "outputs": [
        {
          "name": "",
          "type": "bool"
        }
      ],
      "payable": false,
      "stateMutability": "view",
      "type": "function"
    },
    {
      "constant": true,
      "inputs": [],
      "name": "getEVMScriptRegistry",
      "outputs": [
        {
          "name": "",
          "type": "address"
        }
      ],
      "payable": false,
      "stateMutability": "view",
      "type": "function"
    },
    {
      "constant": false,
      "inputs": [
        {
          "name": "_executionScript",
          "type": "bytes"
        },
        {
          "name": "_metadata",
          "type": "string"
        },
        {
          "name": "_castVote",
          "type": "bool"
        },
        {
          "name": "_executesIfDecided",
          "type": "bool"
        }
      ],
      "name": "newVoteExt",
      "outputs": [
        {
          "name": "voteId",
          "type": "uint256"
        }
      ],
      "payable": false,
      "stateMutability": "nonpayable",
      "type": "function"
    },
    {
      "constant": true,
      "inputs": [],
      "name": "voteTime",
      "outputs": [
        {
          "name": "",
          "type": "uint64"
        }
      ],
      "payable": false,
      "stateMutability": "view",
      "type": "function"
    },
    {
      "constant": true,
      "inputs": [],
      "name": "CREATE_VOTES_ROLE",
      "outputs": [
        {
          "name": "",
          "type": "bytes32"
        }
      ],
      "payable": false,
      "stateMutability": "view",
      "type": "function"
    },
    {
      "constant": true,
      "inputs": [
        {
          "name": "_sender",
          "type": "address"
        },
        {
          "name": "",
          "type": "bytes"
        }
      ],
      "name": "canForward",
      "outputs": [
        {
          "name": "",
          "type": "bool"
        }
      ],
      "payable": false,
      "stateMutability": "view",
      "type": "function"
    },
    {
      "constant": true,
      "inputs": [
        {
          "name": "_voteId",
          "type": "uint256"
        }
      ],
      "name": "canExecute",
      "outputs": [
        {
          "name": "",
          "type": "bool"
        }
      ],
      "payable": false,
      "stateMutability": "view",
      "type": "function"
    },
    {
      "constant": true,
      "inputs": [
        {
          "name": "_voteId",
          "type": "uint256"
        },
        {
          "name": "_voter",
          "type": "address"
        }
      ],
      "name": "canVote",
      "outputs": [
        {
          "name": "",
          "type": "bool"
        }
      ],
      "payable": false,
      "stateMutability": "view",
      "type": "function"
    },
    {
      "constant": true,
      "inputs": [],
      "name": "kernel",
      "outputs": [
        {
          "name": "",
          "type": "address"
        }
      ],
      "payable": false,
      "stateMutability": "view",
      "type": "function"
    },
    {
      "constant": false,
      "inputs": [
        {
          "name": "_executionScript",
          "type": "bytes"
        },
        {
          "name": "_metadata",
          "type": "string"
        }
      ],
      "name": "newVote",
      "outputs": [
        {
          "name": "voteId",
          "type": "uint256"
        }
      ],
      "payable": false,
      "stateMutability": "nonpayable",
      "type": "function"
    },
    {
      "constant": false,
      "inputs": [
        {
          "name": "_evmScript",
          "type": "bytes"
        }
      ],
      "name": "forward",
      "outputs": [],
      "payable": false,
      "stateMutability": "nonpayable",
      "type": "function"
    },
    {
      "constant": true,
      "inputs": [],
      "name": "minAcceptQuorumPct",
      "outputs": [
        {
          "name": "",
          "type": "uint64"
        }
      ],
      "payable": false,
      "stateMutability": "view",
      "type": "function"
    },
    {
      "constant": true,
      "inputs": [],
      "name": "isPetrified",
      "outputs": [
        {
          "name": "",
          "type": "bool"
        }
      ],
      "payable": false,
      "stateMutability": "view",
      "type": "function"
    },
    {
      "constant": true,
      "inputs": [],
      "name": "votesLength",
      "outputs": [
        {
          "name": "",
          "type": "uint256"
        }
      ],
      "payable": false,
      "stateMutability": "view",
      "type": "function"
    },
    {
      "constant": false,
      "inputs": [
        {
          "name": "_voteId",
          "type": "uint256"
        },
        {
          "name": "_supports",
          "type": "bool"
        },
        {
          "name": "_executesIfDecided",
          "type": "bool"
        }
      ],
      "name": "vote",
      "outputs": [],
      "payable": false,
      "stateMutability": "nonpayable",
      "type": "function"
    },
    {
      "constant": false,
      "inputs": [
        {
          "name": "_token",
          "type": "address"
        },
        {
          "name": "_supportRequiredPct",
          "type": "uint64"
        },
        {
          "name": "_minAcceptQuorumPct",
          "type": "uint64"
        },
        {
          "name": "_voteTime",
          "type": "uint64"
        }
      ],
      "name": "initialize",
      "outputs": [],
      "payable": false,
      "stateMutability": "nonpayable",
      "type": "function"
    },
    {
      "constant": false,
      "inputs": [
        {
          "name": "_executionScript",
          "type": "bytes"
        },
        {
          "name": "_metadata",
          "type": "string"
        },
        {
          "name": "_castVote",
          "type": "bool"
        },
        {
          "name": "_executesIfDecided",
          "type": "bool"
        }
      ],
      "name": "newVote",
      "outputs": [
        {
          "name": "voteId",
          "type": "uint256"
        }
      ],
      "payable": false,
      "stateMutability": "nonpayable",
      "type": "function"
    },
    {
      "constant": true,
      "inputs": [],
      "name": "mockedTimestamp",
      "outputs": [
        {
          "name": "",
          "type": "uint256"
        }
      ],
      "payable": false,
      "stateMutability": "view",
      "type": "function"
    },
    {
      "constant": false,
      "inputs": [
        {
          "name": "_voteId",
          "type": "uint256"
        }
      ],
      "name": "executeVote",
      "outputs": [],
      "payable": false,
      "stateMutability": "nonpayable",
      "type": "function"
    },
    {
      "constant": true,
      "inputs": [],
      "name": "supportRequiredPct",
      "outputs": [
        {
          "name": "",
          "type": "uint64"
        }
      ],
      "payable": false,
      "stateMutability": "view",
      "type": "function"
    },
    {
      "constant": true,
      "inputs": [],
      "name": "token",
      "outputs": [
        {
          "name": "",
          "type": "address"
        }
      ],
      "payable": false,
      "stateMutability": "view",
      "type": "function"
    },
    {
      "constant": true,
      "inputs": [],
      "name": "PCT_BASE",
      "outputs": [
        {
          "name": "",
          "type": "uint64"
        }
      ],
      "payable": false,
      "stateMutability": "view",
      "type": "function"
    },
    {
      "constant": true,
      "inputs": [],
      "name": "isForwarder",
      "outputs": [
        {
          "name": "",
          "type": "bool"
        }
      ],
      "payable": false,
      "stateMutability": "pure",
      "type": "function"
    },
    {
      "anonymous": false,
      "inputs": [
        {
          "indexed": true,
          "name": "voteId",
          "type": "uint256"
        },
        {
          "indexed": true,
          "name": "creator",
          "type": "address"
        },
        {
          "indexed": false,
          "name": "metadata",
          "type": "string"
        }
      ],
      "name": "StartVote",
      "type": "event"
    },
    {
      "anonymous": false,
      "inputs": [
        {
          "indexed": true,
          "name": "voteId",
          "type": "uint256"
        },
        {
          "indexed": true,
          "name": "voter",
          "type": "address"
        },
        {
          "indexed": false,
          "name": "supports",
          "type": "bool"
        },
        {
          "indexed": false,
          "name": "stake",
          "type": "uint256"
        }
      ],
      "name": "CastVote",
      "type": "event"
    },
    {
      "anonymous": false,
      "inputs": [
        {
          "indexed": true,
          "name": "voteId",
          "type": "uint256"
        }
      ],
      "name": "ExecuteVote",
      "type": "event"
    },
    {
      "anonymous": false,
      "inputs": [
        {
          "indexed": false,
          "name": "supportRequiredPct",
          "type": "uint64"
        }
      ],
      "name": "ChangeSupportRequired",
      "type": "event"
    },
    {
      "anonymous": false,
      "inputs": [
        {
          "indexed": false,
          "name": "minAcceptQuorumPct",
          "type": "uint64"
        }
      ],
      "name": "ChangeMinQuorum",
      "type": "event"
    },
    {
      "anonymous": false,
      "inputs": [
        {
          "indexed": true,
          "name": "executor",
          "type": "address"
        },
        {
          "indexed": false,
          "name": "script",
          "type": "bytes"
        },
        {
          "indexed": false,
          "name": "input",
          "type": "bytes"
        },
        {
          "indexed": false,
          "name": "returnData",
          "type": "bytes"
        }
      ],
      "name": "ScriptResult",
      "type": "event"
    },
    {
      "anonymous": false,
      "inputs": [
        {
          "indexed": true,
          "name": "vault",
          "type": "address"
        },
        {
          "indexed": true,
          "name": "token",
          "type": "address"
        },
        {
          "indexed": false,
          "name": "amount",
          "type": "uint256"
        }
      ],
      "name": "RecoverToVault",
      "type": "event"
    }
  ],
  "bytecode": "0x60806040526200001d62000023640100000000026401000000009004565b62000309565b60006200003e6200015e640100000000026401000000009004565b146040805190810160405280601881526020017f494e49545f414c52454144595f494e495449414c495a4544000000000000000081525090151562000121576040517f08c379a00000000000000000000000000000000000000000000000000000000081526004018080602001828103825283818151815260200191508051906020019080838360005b83811015620000e5578082015181840152602081019050620000c8565b50505050905090810190601f168015620001135780820380516001836020036101000a031916815260200191505b509250505060405180910390fd5b506200015c7fffffffffffffffffffffffffffffffffffffffffffffffffffffffffffffffff620001ab640100000000026401000000009004565b565b6000620001a67febb05b386a8d34882b8711d156f463690983dc47815980fb82aeeff1aa43579e60010260001916620002f76401000000000262003ef3176401000000009004565b905090565b6000620001c66200015e640100000000026401000000009004565b146040805190810160405280601881526020017f494e49545f414c52454144595f494e495449414c495a45440000000000000000815250901515620002a9576040517f08c379a00000000000000000000000000000000000000000000000000000000081526004018080602001828103825283818151815260200191508051906020019080838360005b838110156200026d57808201518184015260208101905062000250565b50505050905090810190601f1680156200029b5780820380516001836020036101000a031916815260200191505b509250505060405180910390fd5b50620002f4817febb05b386a8d34882b8711d156f463690983dc47815980fb82aeeff1aa43579e60010260001916620003026401000000000262004fdf179091906401000000009004565b50565b600081549050919050565b8082555050565b6158f680620003196000396000f300608060405260043610610225576000357c0100000000000000000000000000000000000000000000000000000000900463ffffffff168063021ea05c1461022a5780630803fac0146102835780632914b9bd146102b257806332f0a3b51461035b5780633c624c75146103b25780634b12311c146103e55780634e9bea41146104545780635a55c1f0146104cd5780635eb243321461060a57806360be675f1461064157806362de7e5a1461066e5780636958839e146106a15780636da1dfac146106ce5780637750db14146106f95780637c1d0b87146107265780637e3659501461075d5780637e7db6e11461079c57806380afdea8146107f75780638b3dd7491461082a5780638f49e12f1461085557806398fdacb7146108825780639d4941d8146108ad578063a1658fad146108f0578063a479e5081461099c578063aca49e35146109f3578063bcf93dd614610a72578063be2c64d414610ab1578063c0774df314610ae4578063cc63604a14610b85578063cdb2867b14610bca578063d4aae0c414610c2f578063d5db2c8014610c86578063d948d46814610ced578063dc474b1a14610d56578063de4796ed14610d95578063de4f634714610dc4578063df133bca14610def578063df3d330514610e34578063f4b0051314610eb3578063f7796cd314610f32578063f98a4eca14610f5d578063fad167ab14610f8a578063fc0c546a14610fc9578063fc157cb414611020578063fd64eccb1461105f575b600080fd5b34801561023657600080fd5b5061026960048036038101908080359060200190929190803590602001909291908035906020019092919050505061108e565b604051808215151515815260200191505060405180910390f35b34801561028f57600080fd5b506102986110a4565b604051808215151515815260200191505060405180910390f35b3480156102be57600080fd5b50610319600480360381019080803590602001908201803590602001908080601f01602080910402602001604051908101604052809392919081815260200183838082843782019150505050505091929192905050506110cf565b604051808273ffffffffffffffffffffffffffffffffffffffff1673ffffffffffffffffffffffffffffffffffffffff16815260200191505060405180910390f35b34801561036757600080fd5b506103706111ee565b604051808273ffffffffffffffffffffffffffffffffffffffff1673ffffffffffffffffffffffffffffffffffffffff16815260200191505060405180910390f35b3480156103be57600080fd5b506103c761129b565b60405180826000191660001916815260200191505060405180910390f35b3480156103f157600080fd5b5061043060048036038101908080359060200190929190803573ffffffffffffffffffffffffffffffffffffffff1690602001909291905050506112d4565b6040518082600281111561044057fe5b60ff16815260200191505060405180910390f35b34801561046057600080fd5b506104b7600480360381019080803573ffffffffffffffffffffffffffffffffffffffff16906020019092919080359060200190929190803590602001908201803590602001919091929391929390505050611425565b6040518082815260200191505060405180910390f35b3480156104d957600080fd5b506104f860048036038101908080359060200190929190505050611613565b604051808b1515151581526020018a1515151581526020018967ffffffffffffffff1667ffffffffffffffff1681526020018867ffffffffffffffff1667ffffffffffffffff1681526020018767ffffffffffffffff1667ffffffffffffffff1681526020018667ffffffffffffffff1667ffffffffffffffff16815260200185815260200184815260200183815260200180602001828103825283818151815260200191508051906020019080838360005b838110156105c65780820151818401526020810190506105ab565b50505050905090810190601f1680156105f35780820380516001836020036101000a031916815260200191505b509b50505050505050505050505060405180910390f35b34801561061657600080fd5b5061063f600480360381019080803567ffffffffffffffff16906020019092919050505061186d565b005b34801561064d57600080fd5b5061066c60048036038101908080359060200190929190505050611b47565b005b34801561067a57600080fd5b50610683611b90565b60405180826000191660001916815260200191505060405180910390f35b3480156106ad57600080fd5b506106cc60048036038101908080359060200190929190505050611bc9565b005b3480156106da57600080fd5b506106e3611bd3565b6040518082815260200191505060405180910390f35b34801561070557600080fd5b5061072460048036038101908080359060200190929190505050611be2565b005b34801561073257600080fd5b5061075b600480360381019080803567ffffffffffffffff169060200190929190505050611c2b565b005b34801561076957600080fd5b50610772612003565b604051808267ffffffffffffffff1667ffffffffffffffff16815260200191505060405180910390f35b3480156107a857600080fd5b506107dd600480360381019080803573ffffffffffffffffffffffffffffffffffffffff169060200190929190505050612012565b604051808215151515815260200191505060405180910390f35b34801561080357600080fd5b5061080c61201d565b60405180826000191660001916815260200191505060405180910390f35b34801561083657600080fd5b5061083f612054565b6040518082815260200191505060405180910390f35b34801561086157600080fd5b506108806004803603810190808035906020019092919050505061208b565b005b34801561088e57600080fd5b506108976120d4565b6040518082815260200191505060405180910390f35b3480156108b957600080fd5b506108ee600480360381019080803573ffffffffffffffffffffffffffffffffffffffff1690602001909291905050506120da565b005b3480156108fc57600080fd5b50610982600480360381019080803573ffffffffffffffffffffffffffffffffffffffff1690602001909291908035600019169060200190929190803590602001908201803590602001908080602002602001604051908101604052809392919081815260200183836020028082843782019150505050505091929192905050506124f8565b604051808215151515815260200191505060405180910390f35b3480156109a857600080fd5b506109b16126f4565b604051808273ffffffffffffffffffffffffffffffffffffffff1673ffffffffffffffffffffffffffffffffffffffff16815260200191505060405180910390f35b3480156109ff57600080fd5b50610a5c60048036038101908080359060200190820180359060200191909192939192939080359060200190820180359060200191909192939192939080351515906020019092919080351515906020019092919050505061280f565b6040518082815260200191505060405180910390f35b348015610a7e57600080fd5b50610a876128f6565b604051808267ffffffffffffffff1667ffffffffffffffff16815260200191505060405180910390f35b348015610abd57600080fd5b50610ac6612910565b60405180826000191660001916815260200191505060405180910390f35b348015610af057600080fd5b50610b6b600480360381019080803573ffffffffffffffffffffffffffffffffffffffff169060200190929190803590602001908201803590602001908080601f0160208091040260200160405190810160405280939291908181526020018383808284378201915050505050509192919290505050612949565b604051808215151515815260200191505060405180910390f35b348015610b9157600080fd5b50610bb06004803603810190808035906020019092919050505061299a565b604051808215151515815260200191505060405180910390f35b348015610bd657600080fd5b50610c1560048036038101908080359060200190929190803573ffffffffffffffffffffffffffffffffffffffff169060200190929190505050612a92565b604051808215151515815260200191505060405180910390f35b348015610c3b57600080fd5b50610c44612b8c565b604051808273ffffffffffffffffffffffffffffffffffffffff1673ffffffffffffffffffffffffffffffffffffffff16815260200191505060405180910390f35b348015610c9257600080fd5b50610cd7600480360381019080803590602001908201803590602001919091929391929390803590602001908201803590602001919091929391929390505050612bc3565b6040518082815260200191505060405180910390f35b348015610cf957600080fd5b50610d54600480360381019080803590602001908201803590602001908080601f0160208091040260200160405190810160405280939291908181526020018383808284378201915050505050509192919290505050612d91565b005b348015610d6257600080fd5b50610d6b612e9b565b604051808267ffffffffffffffff1667ffffffffffffffff16815260200191505060405180910390f35b348015610da157600080fd5b50610daa612eb5565b604051808215151515815260200191505060405180910390f35b348015610dd057600080fd5b50610dd9612ee6565b6040518082815260200191505060405180910390f35b348015610dfb57600080fd5b50610e3260048036038101908080359060200190929190803515159060200190929190803515159060200190929190505050612eec565b005b348015610e4057600080fd5b50610eb1600480360381019080803573ffffffffffffffffffffffffffffffffffffffff169060200190929190803567ffffffffffffffff169060200190929190803567ffffffffffffffff169060200190929190803567ffffffffffffffff1690602001909291905050506130cc565b005b348015610ebf57600080fd5b50610f1c600480360381019080803590602001908201803590602001919091929391929390803590602001908201803590602001919091929391929390803515159060200190929190803515159060200190929190505050613474565b6040518082815260200191505060405180910390f35b348015610f3e57600080fd5b50610f47613643565b6040518082815260200191505060405180910390f35b348015610f6957600080fd5b50610f8860048036038101908080359060200190929190505050613649565b005b348015610f9657600080fd5b50610f9f61373b565b604051808267ffffffffffffffff1667ffffffffffffffff16815260200191505060405180910390f35b348015610fd557600080fd5b50610fde613755565b604051808273ffffffffffffffffffffffffffffffffffffffff1673ffffffffffffffffffffffffffffffffffffffff16815260200191505060405180910390f35b34801561102c57600080fd5b5061103561377a565b604051808267ffffffffffffffff1667ffffffffffffffff16815260200191505060405180910390f35b34801561106b57600080fd5b50611074613786565b604051808215151515815260200191505060405180910390f35b600061109b84848461378f565b90509392505050565b6000806110af612054565b9050600081141580156110c95750806110c66137e4565b10155b91505090565b60006110d96126f4565b73ffffffffffffffffffffffffffffffffffffffff166304bf2a7f836040518263ffffffff167c01000000000000000000000000000000000000000000000000000000000281526004018080602001828103825283818151815260200191508051906020019080838360005b83811015611160578082015181840152602081019050611145565b50505050905090810190601f16801561118d5780820380516001836020036101000a031916815260200191505b5092505050602060405180830381600087803b1580156111ac57600080fd5b505af11580156111c0573d6000803e3d6000fd5b505050506040513d60208110156111d657600080fd5b81019080805190602001909291905050509050919050565b60006111f8612b8c565b73ffffffffffffffffffffffffffffffffffffffff166332f0a3b56040518163ffffffff167c0100000000000000000000000000000000000000000000000000000000028152600401602060405180830381600087803b15801561125b57600080fd5b505af115801561126f573d6000803e3d6000fd5b505050506040513d602081101561128557600080fd5b8101908080519060200190929190505050905090565b60405180807f4d4f444946595f51554f52554d5f524f4c4500000000000000000000000000008152506012019050604051809103902081565b60008260035481106040805190810160405280600e81526020017f564f54494e475f4e4f5f564f54450000000000000000000000000000000000008152509015156113ba576040517f08c379a00000000000000000000000000000000000000000000000000000000081526004018080602001828103825283818151815260200191508051906020019080838360005b8381101561137f578082015181840152602081019050611364565b50505050905090810190601f1680156113ac5780820380516001836020036101000a031916815260200191505b509250505060405180910390fd5b506002600085815260200190815260200160002060060160008473ffffffffffffffffffffffffffffffffffffffff1673ffffffffffffffffffffffffffffffffffffffff16815260200190815260200160002060009054906101000a900460ff1691505092915050565b600060606000809054906101000a900473ffffffffffffffffffffffffffffffffffffffff1673ffffffffffffffffffffffffffffffffffffffff1663827f32c087876040518363ffffffff167c0100000000000000000000000000000000000000000000000000000000028152600401808373ffffffffffffffffffffffffffffffffffffffff1673ffffffffffffffffffffffffffffffffffffffff16815260200182815260200192505050602060405180830381600087803b1580156114ed57600080fd5b505af1158015611501573d6000803e3d6000fd5b505050506040513d602081101561151757600080fd5b81019080805190602001909291905050505060006040519080825280601f01601f19166020018201604052801561155d5781602001602082028038833980820191505090505b50905061159f8185858080601f016020809104026020016040519081016040528093929190818152602001838380828437820191505050505050600080613809565b91503373ffffffffffffffffffffffffffffffffffffffff16827f4d72fe0577a3a3f7da968d7b892779dde102519c25527b29cf7054f245c791b98686604051808060200182810382528484828181526020019250808284378201915050935050505060405180910390a350949350505050565b6000806000806000806000806000606060008b60035481106040805190810160405280600e81526020017f564f54494e475f4e4f5f564f5445000000000000000000000000000000000000815250901515611709576040517f08c379a00000000000000000000000000000000000000000000000000000000081526004018080602001828103825283818151815260200191508051906020019080838360005b838110156116ce5780820151818401526020810190506116b3565b50505050905090810190601f1680156116fb5780820380516001836020036101000a031916815260200191505b509250505060405180910390fd5b50600260008e8152602001908152602001600020915061172882613be4565b9b508160000160009054906101000a900460ff169a508160000160019054906101000a900467ffffffffffffffff1699508160000160099054906101000a900467ffffffffffffffff1698508160000160119054906101000a900467ffffffffffffffff1697508160010160009054906101000a900467ffffffffffffffff169650816002015495508160030154945081600401549350816005018054600181600116156101000203166002900480601f0160208091040260200160405190810160405280929190818152602001828054600181600116156101000203166002900480156118575780601f1061182c57610100808354040283529160200191611857565b820191906000526020600020905b81548152906001019060200180831161183a57829003601f168201915b5050505050925050509193959799509193959799565b60405180807f4d4f444946595f51554f52554d5f524f4c450000000000000000000000000000815250601201905060405180910390206118d78267ffffffffffffffff16600160009054906101000a900467ffffffffffffffff1667ffffffffffffffff16613c70565b6118e23383836124f8565b6040805190810160405280600f81526020017f4150505f415554485f4641494c454400000000000000000000000000000000008152509015156119c0576040517f08c379a00000000000000000000000000000000000000000000000000000000081526004018080602001828103825283818151815260200191508051906020019080838360005b8381101561198557808201518184015260208101905061196a565b50505050905090810190601f1680156119b25780820380516001836020036101000a031916815260200191505b509250505060405180910390fd5b50600060149054906101000a900467ffffffffffffffff1667ffffffffffffffff168367ffffffffffffffff1611156040805190810160405280601981526020017f564f54494e475f4348414e47455f51554f52554d5f5043545300000000000000815250901515611acd576040517f08c379a00000000000000000000000000000000000000000000000000000000081526004018080602001828103825283818151815260200191508051906020019080838360005b83811015611a92578082015181840152602081019050611a77565b50505050905090810190601f168015611abf5780820380516001836020036101000a031916815260200191505b509250505060405180910390fd5b5082600160006101000a81548167ffffffffffffffff021916908367ffffffffffffffff1602179055507f3172f2e9273c729c2a47cc8bf7e7f18506e3e3035126d562602bd2155bc78a5083604051808267ffffffffffffffff1667ffffffffffffffff16815260200191505060405180910390a1505050565b6000600454141515611b7357611b6881600454613ce790919063ffffffff16565b600481905550611b8d565b611b868142613ce790919063ffffffff16565b6004819055505b50565b60405180807f4d4f444946595f535550504f52545f524f4c45000000000000000000000000008152506013019050604051809103902081565b8060048190555050565b6000611bdd6137e4565b905090565b6000600554141515611c0e57611c0381600554613ddc90919063ffffffff16565b600581905550611c28565b611c218143613ddc90919063ffffffff16565b6005819055505b50565b60405180807f4d4f444946595f535550504f52545f524f4c450000000000000000000000000081525060130190506040518091039020611c958267ffffffffffffffff16600060149054906101000a900467ffffffffffffffff1667ffffffffffffffff16613c70565b611ca03383836124f8565b6040805190810160405280600f81526020017f4150505f415554485f4641494c45440000000000000000000000000000000000815250901515611d7e576040517f08c379a00000000000000000000000000000000000000000000000000000000081526004018080602001828103825283818151815260200191508051906020019080838360005b83811015611d43578082015181840152602081019050611d28565b50505050905090810190601f168015611d705780820380516001836020036101000a031916815260200191505b509250505060405180910390fd5b508267ffffffffffffffff16600160009054906101000a900467ffffffffffffffff1667ffffffffffffffff1611156040805190810160405280601a81526020017f564f54494e475f4348414e47455f535550504f52545f50435453000000000000815250901515611e8b576040517f08c379a00000000000000000000000000000000000000000000000000000000081526004018080602001828103825283818151815260200191508051906020019080838360005b83811015611e50578082015181840152602081019050611e35565b50505050905090810190601f168015611e7d5780820380516001836020036101000a031916815260200191505b509250505060405180910390fd5b50670de0b6b3a764000067ffffffffffffffff168367ffffffffffffffff16106040805190810160405280601a81526020017f564f54494e475f4348414e47455f535550505f544f4f5f424947000000000000815250901515611f89576040517f08c379a00000000000000000000000000000000000000000000000000000000081526004018080602001828103825283818151815260200191508051906020019080838360005b83811015611f4e578082015181840152602081019050611f33565b50505050905090810190601f168015611f7b5780820380516001836020036101000a031916815260200191505b509250505060405180910390fd5b5082600060146101000a81548167ffffffffffffffff021916908367ffffffffffffffff1602179055507f903b617f7f36eb047a29b89d1bf7885fdae31d250c3320fccf11d045c11b396e83604051808267ffffffffffffffff1667ffffffffffffffff16815260200191505060405180910390a1505050565b600061200d613ed1565b905090565b600060019050919050565b600061204f7fd625496217aa6a3453eecb9c3489dc5a53e6c67b444329ea2b2cbc9ff547639b60010260001916613ee8565b905090565b60006120867febb05b386a8d34882b8711d156f463690983dc47815980fb82aeeff1aa43579e60010260001916613ef3565b905090565b60006004541415156120b7576120ac81600454613ddc90919063ffffffff16565b6004819055506120d1565b6120ca8142613ddc90919063ffffffff16565b6004819055505b50565b60055481565b60008060006120e884612012565b6040805190810160405280601281526020017f5245434f5645525f444953414c4c4f57454400000000000000000000000000008152509015156121c6576040517f08c379a00000000000000000000000000000000000000000000000000000000081526004018080602001828103825283818151815260200191508051906020019080838360005b8381101561218b578082015181840152602081019050612170565b50505050905090810190601f1680156121b85780820380516001836020036101000a031916815260200191505b509250505060405180910390fd5b506121cf6111ee565b92506121da83613efe565b6040805190810160405280601a81526020017f5245434f5645525f5641554c545f4e4f545f434f4e54524143540000000000008152509015156122b8576040517f08c379a00000000000000000000000000000000000000000000000000000000081526004018080602001828103825283818151815260200191508051906020019080838360005b8381101561227d578082015181840152602081019050612262565b50505050905090810190601f1680156122aa5780820380516001836020036101000a031916815260200191505b509250505060405180910390fd5b50600073ffffffffffffffffffffffffffffffffffffffff168473ffffffffffffffffffffffffffffffffffffffff161415612354573073ffffffffffffffffffffffffffffffffffffffff163191508273ffffffffffffffffffffffffffffffffffffffff166108fc839081150290604051600060405180830381858888f1935050505015801561234e573d6000803e3d6000fd5b5061248d565b839050612380308273ffffffffffffffffffffffffffffffffffffffff16613f5090919063ffffffff16565b91506123ad83838373ffffffffffffffffffffffffffffffffffffffff1661412a9092919063ffffffff16565b6040805190810160405280601d81526020017f5245434f5645525f544f4b454e5f5452414e534645525f4641494c454400000081525090151561248b576040517f08c379a00000000000000000000000000000000000000000000000000000000081526004018080602001828103825283818151815260200191508051906020019080838360005b83811015612450578082015181840152602081019050612435565b50505050905090810190601f16801561247d5780820380516001836020036101000a031916815260200191505b509250505060405180910390fd5b505b8373ffffffffffffffffffffffffffffffffffffffff168373ffffffffffffffffffffffffffffffffffffffff167f596caf56044b55fb8c4ca640089bbc2b63cae3e978b851f5745cbb7c5b288e02846040518082815260200191505060405180910390a350505050565b6000806125036110a4565b151561251257600091506126ec565b61251a612b8c565b9050600073ffffffffffffffffffffffffffffffffffffffff168173ffffffffffffffffffffffffffffffffffffffff16141561255a57600091506126ec565b8073ffffffffffffffffffffffffffffffffffffffff1663fdef91068630876125828861420a565b6040518563ffffffff167c0100000000000000000000000000000000000000000000000000000000028152600401808573ffffffffffffffffffffffffffffffffffffffff1673ffffffffffffffffffffffffffffffffffffffff1681526020018473ffffffffffffffffffffffffffffffffffffffff1673ffffffffffffffffffffffffffffffffffffffff168152602001836000191660001916815260200180602001828103825283818151815260200191508051906020019080838360005b8381101561265f578082015181840152602081019050612644565b50505050905090810190601f16801561268c5780820380516001836020036101000a031916815260200191505b5095505050505050602060405180830381600087803b1580156126ae57600080fd5b505af11580156126c2573d6000803e3d6000fd5b505050506040513d60208110156126d857600080fd5b810190808051906020019092919050505091505b509392505050565b6000806126ff612b8c565b73ffffffffffffffffffffffffffffffffffffffff1663be00bbd87fd6f028ca0e8edb4a8c9757ca4fdccab25fa1e0317da1188108f7d2dee14902fb6001027fddbcfd564f642ab5627cf68b9b7d374fb4f8a36e941a75d89c87998cef03bd616001026040518363ffffffff167c0100000000000000000000000000000000000000000000000000000000028152600401808360001916600019168152602001826000191660001916815260200192505050602060405180830381600087803b1580156127cb57600080fd5b505af11580156127df573d6000803e3d6000fd5b505050506040513d60208110156127f557600080fd5b810190808051906020019092919050505090508091505090565b600061288187878080601f01602080910402602001604051908101604052809392919081815260200183838082843782019150505050505086868080601f0160208091040260200160405190810160405280939291908181526020018383808284378201915050505050508585613809565b90503373ffffffffffffffffffffffffffffffffffffffff16817f4d72fe0577a3a3f7da968d7b892779dde102519c25527b29cf7054f245c791b98787604051808060200182810382528484828181526020019250808284378201915050935050505060405180910390a39695505050505050565b600160089054906101000a900467ffffffffffffffff1681565b60405180807f4352454154455f564f5445535f524f4c450000000000000000000000000000008152506011019050604051809103902081565b60006129928360405180807f4352454154455f564f5445535f524f4c450000000000000000000000000000008152506011019050604051809103902061298d614221565b6124f8565b905092915050565b60008160035481106040805190810160405280600e81526020017f564f54494e475f4e4f5f564f5445000000000000000000000000000000000000815250901515612a80576040517f08c379a00000000000000000000000000000000000000000000000000000000081526004018080602001828103825283818151815260200191508051906020019080838360005b83811015612a45578082015181840152602081019050612a2a565b50505050905090810190601f168015612a725780820380516001836020036101000a031916815260200191505b509250505060405180910390fd5b50612a8a83614259565b915050919050565b60008260035481106040805190810160405280600e81526020017f564f54494e475f4e4f5f564f5445000000000000000000000000000000000000815250901515612b78576040517f08c379a00000000000000000000000000000000000000000000000000000000081526004018080602001828103825283818151815260200191508051906020019080838360005b83811015612b3d578082015181840152602081019050612b22565b50505050905090810190601f168015612b6a5780820380516001836020036101000a031916815260200191505b509250505060405180910390fd5b50612b83848461439a565b91505092915050565b6000612bbe7f4172f0f7d2289153072b0a6ca36959e0cbe2efc3afe50fc81636caa96338137b600102600019166144f0565b905090565b600060405180807f4352454154455f564f5445535f524f4c4500000000000000000000000000000081525060110190506040518091039020612c3633826000604051908082528060200260200182016040528015612c305781602001602082028038833980820191505090505b506124f8565b6040805190810160405280600f81526020017f4150505f415554485f4641494c45440000000000000000000000000000000000815250901515612d14576040517f08c379a00000000000000000000000000000000000000000000000000000000081526004018080602001828103825283818151815260200191508051906020019080838360005b83811015612cd9578082015181840152602081019050612cbe565b50505050905090810190601f168015612d065780820380516001836020036101000a031916815260200191505b509250505060405180910390fd5b50612d8686868080601f01602080910402602001604051908101604052809392919081815260200183838082843782019150505050505085858080601f016020809104026020016040519081016040528093929190818152602001838380828437820191505050505050600180613809565b915050949350505050565b612d9b3382612949565b6040805190810160405280601681526020017f564f54494e475f43414e5f4e4f545f464f525741524400000000000000000000815250901515612e79576040517f08c379a00000000000000000000000000000000000000000000000000000000081526004018080602001828103825283818151815260200191508051906020019080838360005b83811015612e3e578082015181840152602081019050612e23565b50505050905090810190601f168015612e6b5780820380516001836020036101000a031916815260200191505b509250505060405180910390fd5b50612e97816020604051908101604052806000815250600180613809565b5050565b600160009054906101000a900467ffffffffffffffff1681565b60007fffffffffffffffffffffffffffffffffffffffffffffffffffffffffffffffff612ee0612054565b14905090565b60035481565b8260035481106040805190810160405280600e81526020017f564f54494e475f4e4f5f564f5445000000000000000000000000000000000000815250901515612fd0576040517f08c379a00000000000000000000000000000000000000000000000000000000081526004018080602001828103825283818151815260200191508051906020019080838360005b83811015612f95578082015181840152602081019050612f7a565b50505050905090810190601f168015612fc25780820380516001836020036101000a031916815260200191505b509250505060405180910390fd5b50612fdb843361439a565b6040805190810160405280601381526020017f564f54494e475f43414e5f4e4f545f564f5445000000000000000000000000008152509015156130b9576040517f08c379a00000000000000000000000000000000000000000000000000000000081526004018080602001828103825283818151815260200191508051906020019080838360005b8381101561307e578082015181840152602081019050613063565b50505050905090810190601f1680156130ab5780820380516001836020036101000a031916815260200191505b509250505060405180910390fd5b506130c6848433856144fb565b50505050565b60006130d6612054565b146040805190810160405280601881526020017f494e49545f414c52454144595f494e495449414c495a454400000000000000008152509015156131b5576040517f08c379a00000000000000000000000000000000000000000000000000000000081526004018080602001828103825283818151815260200191508051906020019080838360005b8381101561317a57808201518184015260208101905061315f565b50505050905090810190601f1680156131a75780820380516001836020036101000a031916815260200191505b509250505060405180910390fd5b506131be61484a565b8267ffffffffffffffff168267ffffffffffffffff1611156040805190810160405280601081526020017f564f54494e475f494e49545f50435453000000000000000000000000000000008152509015156132b4576040517f08c379a00000000000000000000000000000000000000000000000000000000081526004018080602001828103825283818151815260200191508051906020019080838360005b8381101561327957808201518184015260208101905061325e565b50505050905090810190601f1680156132a65780820380516001836020036101000a031916815260200191505b509250505060405180910390fd5b50670de0b6b3a764000067ffffffffffffffff168367ffffffffffffffff16106040805190810160405280601b81526020017f564f54494e475f494e49545f535550504f52545f544f4f5f42494700000000008152509015156133b2576040517f08c379a00000000000000000000000000000000000000000000000000000000081526004018080602001828103825283818151815260200191508051906020019080838360005b8381101561337757808201518184015260208101905061335c565b50505050905090810190601f1680156133a45780820380516001836020036101000a031916815260200191505b509250505060405180910390fd5b50836000806101000a81548173ffffffffffffffffffffffffffffffffffffffff021916908373ffffffffffffffffffffffffffffffffffffffff16021790555082600060146101000a81548167ffffffffffffffff021916908367ffffffffffffffff16021790555081600160006101000a81548167ffffffffffffffff021916908367ffffffffffffffff16021790555080600160086101000a81548167ffffffffffffffff021916908367ffffffffffffffff16021790555050505050565b600060405180807f4352454154455f564f5445535f524f4c45000000000000000000000000000000815250601101905060405180910390206134e7338260006040519080825280602002602001820160405280156134e15781602001602082028038833980820191505090505b506124f8565b6040805190810160405280600f81526020017f4150505f415554485f4641494c454400000000000000000000000000000000008152509015156135c5576040517f08c379a00000000000000000000000000000000000000000000000000000000081526004018080602001828103825283818151815260200191508051906020019080838360005b8381101561358a57808201518184015260208101905061356f565b50505050905090810190601f1680156135b75780820380516001836020036101000a031916815260200191505b509250505060405180910390fd5b5061363688888080601f01602080910402602001604051908101604052809392919081815260200183838082843782019150505050505087878080601f0160208091040260200160405190810160405280939291908181526020018383808284378201915050505050508686613809565b9150509695505050505050565b60045481565b8060035481106040805190810160405280600e81526020017f564f54494e475f4e4f5f564f544500000000000000000000000000000000000081525090151561372d576040517f08c379a00000000000000000000000000000000000000000000000000000000081526004018080602001828103825283818151815260200191508051906020019080838360005b838110156136f25780820151818401526020810190506136d7565b50505050905090810190601f16801561371f5780820380516001836020036101000a031916815260200191505b509250505060405180910390fd5b5061373782614977565b5050565b600060149054906101000a900467ffffffffffffffff1681565b6000809054906101000a900473ffffffffffffffffffffffffffffffffffffffff1681565b670de0b6b3a764000081565b60006001905090565b60008060008414156137a457600091506137dc565b836137ca670de0b6b3a764000067ffffffffffffffff1687614a6b90919063ffffffff16565b8115156137d357fe5b04905082811191505b509392505050565b6000806005541415156137fb576005549050613806565b613803614b7d565b90505b90565b6000806000806001613819614b85565b0392506000809054906101000a900473ffffffffffffffffffffffffffffffffffffffff1673ffffffffffffffffffffffffffffffffffffffff1663981b24d0846040518263ffffffff167c0100000000000000000000000000000000000000000000000000000000028152600401808267ffffffffffffffff168152602001915050602060405180830381600087803b1580156138b657600080fd5b505af11580156138ca573d6000803e3d6000fd5b505050506040513d60208110156138e057600080fd5b81019080805190602001909291905050509150600082116040805190810160405280601681526020017f564f54494e475f4e4f5f564f54494e475f504f574552000000000000000000008152509015156139d5576040517f08c379a00000000000000000000000000000000000000000000000000000000081526004018080602001828103825283818151815260200191508051906020019080838360005b8381101561399a57808201518184015260208101905061397f565b50505050905090810190601f1680156139c75780820380516001836020036101000a031916815260200191505b509250505060405180910390fd5b5060036000815480929190600101919050559350600260008581526020019081526020016000209050613a06613ed1565b8160000160016101000a81548167ffffffffffffffff021916908367ffffffffffffffff160217905550828160000160096101000a81548167ffffffffffffffff021916908367ffffffffffffffff160217905550600060149054906101000a900467ffffffffffffffff168160000160116101000a81548167ffffffffffffffff021916908367ffffffffffffffff160217905550600160009054906101000a900467ffffffffffffffff168160010160006101000a81548167ffffffffffffffff021916908367ffffffffffffffff16021790555081816004018190555087816005019080519060200190613afe929190615825565b503373ffffffffffffffffffffffffffffffffffffffff16847f4d72fe0577a3a3f7da968d7b892779dde102519c25527b29cf7054f245c791b9896040518080602001828103825283818151815260200191508051906020019080838360005b83811015613b79578082015181840152602081019050613b5e565b50505050905090810190601f168015613ba65780820380516001836020036101000a031916815260200191505b509250505060405180910390a3858015613bc65750613bc5843361439a565b5b15613bd957613bd884600133886144fb565b5b505050949350505050565b6000613c31600160089054906101000a900467ffffffffffffffff168360000160019054906101000a900467ffffffffffffffff1667ffffffffffffffff16614b9c90919063ffffffff16565b67ffffffffffffffff16613c43613ed1565b67ffffffffffffffff16108015613c6957508160000160009054906101000a900460ff16155b9050919050565b60606002604051908082528060200260200182016040528015613ca25781602001602082028038833980820191505090505b50905082816000815181101515613cb557fe5b906020019060200201818152505081816001815181101515613cd357fe5b906020019060200201818152505092915050565b600080838311156040805190810160405280601281526020017f4d4154485f5355425f554e444552464c4f570000000000000000000000000000815250901515613dcc576040517f08c379a00000000000000000000000000000000000000000000000000000000081526004018080602001828103825283818151815260200191508051906020019080838360005b83811015613d91578082015181840152602081019050613d76565b50505050905090810190601f168015613dbe5780820380516001836020036101000a031916815260200191505b509250505060405180910390fd5b5082840390508091505092915050565b6000808284019050838110156040805190810160405280601181526020017f4d4154485f4144445f4f564552464c4f57000000000000000000000000000000815250901515613ec6576040517f08c379a00000000000000000000000000000000000000000000000000000000081526004018080602001828103825283818151815260200191508051906020019080838360005b83811015613e8b578082015181840152602081019050613e70565b50505050905090810190601f168015613eb85780820380516001836020036101000a031916815260200191505b509250505060405180910390fd5b508091505092915050565b6000613ee3613ede614ca5565b614cca565b905090565b600081549050919050565b600081549050919050565b600080600073ffffffffffffffffffffffffffffffffffffffff168373ffffffffffffffffffffffffffffffffffffffff161415613f3f5760009150613f4a565b823b90506000811191505b50919050565b600060606000808573ffffffffffffffffffffffffffffffffffffffff166370a0823190507c01000000000000000000000000000000000000000000000000000000000285604051602401808273ffffffffffffffffffffffffffffffffffffffff1673ffffffffffffffffffffffffffffffffffffffff168152602001915050604051602081830303815290604052907bffffffffffffffffffffffffffffffffffffffffffffffffffffffff19166020820180517bffffffffffffffffffffffffffffffffffffffffffffffffffffffff8381831617835250505050925061403a8684614de1565b91509150816040805190810160405280601c81526020017f534146455f4552435f32305f42414c414e43455f52455645525445440000000081525090151561411d576040517f08c379a00000000000000000000000000000000000000000000000000000000081526004018080602001828103825283818151815260200191508051906020019080838360005b838110156140e25780820151818401526020810190506140c7565b50505050905090810190601f16801561410f5780820380516001836020036101000a031916815260200191505b509250505060405180910390fd5b5080935050505092915050565b6000606063a9059cbb7c0100000000000000000000000000000000000000000000000000000000028484604051602401808373ffffffffffffffffffffffffffffffffffffffff1673ffffffffffffffffffffffffffffffffffffffff16815260200182815260200192505050604051602081830303815290604052907bffffffffffffffffffffffffffffffffffffffffffffffffffffffff19166020820180517bffffffffffffffffffffffffffffffffffffffffffffffffffffffff838183161783525050505090506142008582614e16565b9150509392505050565b606060006020835102905082915080825250919050565b606060006040519080825280602002602001820160405280156142535781602001602082028038833980820191505090505b50905090565b60008060006002600085815260200190815260200160002091508160000160009054906101000a900460ff16156142935760009250614393565b6142c8826002015483600401548460000160119054906101000a900467ffffffffffffffff1667ffffffffffffffff1661378f565b156142d65760019250614393565b6142df82613be4565b156142ed5760009250614393565b61430882600301548360020154613ddc90919063ffffffff16565b905061433b8260020154828460000160119054906101000a900467ffffffffffffffff1667ffffffffffffffff1661378f565b151561434a5760009250614393565b61437f826002015483600401548460010160009054906101000a900467ffffffffffffffff1667ffffffffffffffff1661378f565b151561438e5760009250614393565b600192505b5050919050565b6000806002600085815260200190815260200160002090506143bb81613be4565b80156144e7575060008060009054906101000a900473ffffffffffffffffffffffffffffffffffffffff1673ffffffffffffffffffffffffffffffffffffffff16634ee2cd7e858460000160099054906101000a900467ffffffffffffffff166040518363ffffffff167c0100000000000000000000000000000000000000000000000000000000028152600401808373ffffffffffffffffffffffffffffffffffffffff1673ffffffffffffffffffffffffffffffffffffffff1681526020018267ffffffffffffffff16815260200192505050602060405180830381600087803b1580156144aa57600080fd5b505af11580156144be573d6000803e3d6000fd5b505050506040513d60208110156144d457600080fd5b8101908080519060200190929190505050115b91505092915050565b600081549050919050565b60008060006002600088815260200190815260200160002092506000809054906101000a900473ffffffffffffffffffffffffffffffffffffffff1673ffffffffffffffffffffffffffffffffffffffff16634ee2cd7e868560000160099054906101000a900467ffffffffffffffff166040518363ffffffff167c0100000000000000000000000000000000000000000000000000000000028152600401808373ffffffffffffffffffffffffffffffffffffffff1673ffffffffffffffffffffffffffffffffffffffff1681526020018267ffffffffffffffff16815260200192505050602060405180830381600087803b1580156145fb57600080fd5b505af115801561460f573d6000803e3d6000fd5b505050506040513d602081101561462557600080fd5b810190808051906020019092919050505091508260060160008673ffffffffffffffffffffffffffffffffffffffff1673ffffffffffffffffffffffffffffffffffffffff16815260200190815260200160002060009054906101000a900460ff1690506001600281111561469657fe5b8160028111156146a257fe5b14156146cc576146bf828460020154613ce790919063ffffffff16565b836002018190555061470b565b6002808111156146d857fe5b8160028111156146e457fe5b141561470a57614701828460030154613ce790919063ffffffff16565b83600301819055505b5b851561473557614728828460020154613ddc90919063ffffffff16565b8360020181905550614755565b61474c828460030154613ddc90919063ffffffff16565b83600301819055505b85614761576002614764565b60015b8360060160008773ffffffffffffffffffffffffffffffffffffffff1673ffffffffffffffffffffffffffffffffffffffff16815260200190815260200160002060006101000a81548160ff021916908360028111156147c057fe5b02179055508473ffffffffffffffffffffffffffffffffffffffff16877fb34ee265e3d4f5ec4e8b52d59b2a9be8fceca2f274ebc080d8fba797fea9391f888560405180831515151581526020018281526020019250505060405180910390a3838015614832575061483187614259565b5b156148415761484087614e68565b5b50505050505050565b6000614854612054565b146040805190810160405280601881526020017f494e49545f414c52454144595f494e495449414c495a45440000000000000000815250901515614933576040517f08c379a00000000000000000000000000000000000000000000000000000000081526004018080602001828103825283818151815260200191508051906020019080838360005b838110156148f85780820151818401526020810190506148dd565b50505050905090810190601f1680156149255780820380516001836020036101000a031916815260200191505b509250505060405180910390fd5b5061497561493f6137e4565b7febb05b386a8d34882b8711d156f463690983dc47815980fb82aeeff1aa43579e60010260001916614fdf90919063ffffffff16565b565b61498081614259565b6040805190810160405280601681526020017f564f54494e475f43414e5f4e4f545f4558454355544500000000000000000000815250901515614a5e576040517f08c379a00000000000000000000000000000000000000000000000000000000081526004018080602001828103825283818151815260200191508051906020019080838360005b83811015614a23578082015181840152602081019050614a08565b50505050905090810190601f168015614a505780820380516001836020036101000a031916815260200191505b509250505060405180910390fd5b50614a6881614e68565b50565b6000806000841415614a805760009150614b76565b8284029050828482811515614a9157fe5b04146040805190810160405280601181526020017f4d4154485f4d554c5f4f564552464c4f57000000000000000000000000000000815250901515614b71576040517f08c379a00000000000000000000000000000000000000000000000000000000081526004018080602001828103825283818151815260200191508051906020019080838360005b83811015614b36578082015181840152602081019050614b1b565b50505050905090810190601f168015614b635780820380516001836020036101000a031916815260200191505b509250505060405180910390fd5b508091505b5092915050565b600043905090565b6000614b97614b926137e4565b614cca565b905090565b60008082840190508367ffffffffffffffff168167ffffffffffffffff1610156040805190810160405280601381526020017f4d41544836345f4144445f4f564552464c4f5700000000000000000000000000815250901515614c9a576040517f08c379a00000000000000000000000000000000000000000000000000000000081526004018080602001828103825283818151815260200191508051906020019080838360005b83811015614c5f578082015181840152602081019050614c44565b50505050905090810190601f168015614c8c5780820380516001836020036101000a031916815260200191505b509250505060405180910390fd5b508091505092915050565b600080600454141515614cbc576004549050614cc7565b614cc4614fe6565b90505b90565b60007fffffffffffffffffffffffffffffffffffffffffffffffffffffffffffffffff67ffffffffffffffff168211156040805190810160405280601581526020017f55494e5436345f4e554d4245525f544f4f5f4249470000000000000000000000815250901515614dd8576040517f08c379a00000000000000000000000000000000000000000000000000000000081526004018080602001828103825283818151815260200191508051906020019080838360005b83811015614d9d578082015181840152602081019050614d82565b50505050905090810190601f168015614dca5780820380516001836020036101000a031916815260200191505b509250505060405180910390fd5b50819050919050565b6000806000806040516020818751602089018a5afa92506000831115614e0657805191505b5081819350935050509250929050565b6000806040516020818551602087016000895af16000811115614e5c573d60008114614e495760208114614e5257614e5a565b60019350614e5a565b600183511493505b505b50508091505092915050565b6000606060026000848152602001908152602001600020915060018260000160006101000a81548160ff02191690831515021790555060006040519080825280601f01601f191660200182016040528015614ed25781602001602082028038833980820191505090505b509050614fac826005018054600181600116156101000203166002900480601f016020809104026020016040519081016040528092919081815260200182805460018160011615610100020316600290048015614f705780601f10614f4557610100808354040283529160200191614f70565b820191906000526020600020905b815481529060010190602001808311614f5357829003601f168201915b5050505050826000604051908082528060200260200182016040528015614fa65781602001602082028038833980820191505090505b50614fee565b50827fbf8e2b108bb7c980e08903a8a46527699d5e84905a082d56dacb4150725c8cab60405160405180910390a2505050565b8082555050565b600042905090565b6060600080606080614ffe6110a4565b6040805190810160405280601481526020017f494e49545f4e4f545f494e495449414c495a45440000000000000000000000008152509015156150dc576040517f08c379a00000000000000000000000000000000000000000000000000000000081526004018080602001828103825283818151815260200191508051906020019080838360005b838110156150a1578082015181840152602081019050615086565b50505050905090810190601f1680156150ce5780820380516001836020036101000a031916815260200191505b509250505060405180910390fd5b506000806150e8612b8c565b91506150f261201d565b90506150fd8a6110cf565b9550600073ffffffffffffffffffffffffffffffffffffffff168673ffffffffffffffffffffffffffffffffffffffff1614156040805190810160405280601b81526020017f45564d52554e5f4558454355544f525f554e415641494c41424c45000000000081525090151561520e576040517f08c379a00000000000000000000000000000000000000000000000000000000081526004018080602001828103825283818151815260200191508051906020019080838360005b838110156151d35780820151818401526020810190506151b8565b50505050905090810190601f1680156152005780820380516001836020036101000a031916815260200191505b509250505060405180910390fd5b508573ffffffffffffffffffffffffffffffffffffffff1663279cea3590507c0100000000000000000000000000000000000000000000000000000000029450848a8a8a60405160240180806020018060200180602001848103845287818151815260200191508051906020019080838360005b8381101561529d578082015181840152602081019050615282565b50505050905090810190601f1680156152ca5780820380516001836020036101000a031916815260200191505b50848103835286818151815260200191508051906020019080838360005b838110156153035780820151818401526020810190506152e8565b50505050905090810190601f1680156153305780820380516001836020036101000a031916815260200191505b50848103825285818151815260200191508051906020019060200280838360005b8381101561536c578082015181840152602081019050615351565b505050509050019650505050505050604051602081830303815290604052907bffffffffffffffffffffffffffffffffffffffffffffffffffffffff19166020820180517bffffffffffffffffffffffffffffffffffffffffffffffffffffffff83818316178352505050509350600080855160208701895af46040519350806000811461547757603f3d11600081146154155760203d03806020883e80870160405250615471565b7f08c379a000000000000000000000000000000000000000000000000000000000865260206004870152601e60248701527f45564d52554e5f4558454355544f525f494e56414c49445f52455455524e00006044870152606486fd5b50615480565b3d6000863e3d85fd5b50508573ffffffffffffffffffffffffffffffffffffffff167f5229a5dba83a54ae8cb5b51bdd6de9474cacbe9dd332f5185f3a4f4f2e3f4ad98b8b8660405180806020018060200180602001848103845287818151815260200191508051906020019080838360005b838110156155055780820151818401526020810190506154ea565b50505050905090810190601f1680156155325780820380516001836020036101000a031916815260200191505b50848103835286818151815260200191508051906020019080838360005b8381101561556b578082015181840152602081019050615550565b50505050905090810190601f1680156155985780820380516001836020036101000a031916815260200191505b50848103825285818151815260200191508051906020019080838360005b838110156155d15780820151818401526020810190506155b6565b50505050905090810190601f1680156155fe5780820380516001836020036101000a031916815260200191505b50965050505050505060405180910390a28296508173ffffffffffffffffffffffffffffffffffffffff16615631612b8c565b73ffffffffffffffffffffffffffffffffffffffff16146040805190810160405280601f81526020017f45564d52554e5f50524f5445435445445f53544154455f4d4f44494649454400815250901515615726576040517f08c379a00000000000000000000000000000000000000000000000000000000081526004018080602001828103825283818151815260200191508051906020019080838360005b838110156156eb5780820151818401526020810190506156d0565b50505050905090810190601f1680156157185780820380516001836020036101000a031916815260200191505b509250505060405180910390fd5b50806000191661573461201d565b60001916146040805190810160405280601f81526020017f45564d52554e5f50524f5445435445445f53544154455f4d4f44494649454400815250901515615817576040517f08c379a00000000000000000000000000000000000000000000000000000000081526004018080602001828103825283818151815260200191508051906020019080838360005b838110156157dc5780820151818401526020810190506157c1565b50505050905090810190601f1680156158095780820380516001836020036101000a031916815260200191505b509250505060405180910390fd5b505050505050509392505050565b828054600181600116156101000203166002900490600052602060002090601f016020900481019282601f1061586657805160ff1916838001178555615894565b82800160010185558215615894579182015b82811115615893578251825591602001919060010190615878565b5b5090506158a191906158a5565b5090565b6158c791905b808211156158c35760008160009055506001016158ab565b5090565b905600a165627a7a723058202ef9771336bc2be7fe5b624156f79a234d8a56a11712bd876d51fd85d5ca3db20029",
  "linkReferences": {},
  "deployedLinkReferences": {}
}